{
  "contractName": "DAO",
  "abi": [
    {
      "inputs": [
        {
          "internalType": "uint256",
          "name": "_voteTime",
          "type": "uint256"
        },
        {
          "internalType": "uint256",
          "name": "_quorum",
          "type": "uint256"
        }
      ],
      "stateMutability": "nonpayable",
      "type": "constructor"
    },
    {
      "anonymous": false,
      "inputs": [
        {
          "indexed": false,
          "internalType": "uint256",
          "name": "id",
          "type": "uint256"
        },
        {
          "indexed": false,
          "internalType": "enum DAO.Status",
          "name": "status",
          "type": "uint8"
        }
      ],
      "name": "ExecuteProposal",
      "type": "event"
    },
    {
      "anonymous": false,
      "inputs": [
        {
          "indexed": false,
          "internalType": "uint256",
          "name": "availableFunds",
          "type": "uint256"
        }
      ],
      "name": "Funds",
      "type": "event"
    },
    {
      "anonymous": false,
      "inputs": [
        {
          "indexed": false,
          "internalType": "uint256",
          "name": "id",
          "type": "uint256"
        },
        {
          "indexed": false,
          "internalType": "string",
          "name": "name",
          "type": "string"
        },
        {
          "indexed": false,
          "internalType": "uint256",
          "name": "amount",
          "type": "uint256"
        },
        {
          "indexed": false,
          "internalType": "address payable",
          "name": "recipient",
          "type": "address"
        },
        {
          "indexed": false,
          "internalType": "uint256",
          "name": "votes",
          "type": "uint256"
        },
        {
          "indexed": false,
          "internalType": "uint256",
          "name": "end",
          "type": "uint256"
        },
        {
          "indexed": false,
          "internalType": "enum DAO.Status",
          "name": "status",
          "type": "uint8"
        }
      ],
      "name": "NewProposal",
      "type": "event"
    },
    {
      "anonymous": false,
      "inputs": [
        {
          "indexed": false,
          "internalType": "uint256",
          "name": "shares",
          "type": "uint256"
        },
        {
          "indexed": false,
          "internalType": "uint256",
          "name": "totalShares",
          "type": "uint256"
        }
      ],
      "name": "Shares",
      "type": "event"
    },
    {
      "anonymous": false,
      "inputs": [
        {
          "indexed": false,
          "internalType": "uint256",
          "name": "id",
          "type": "uint256"
        },
        {
          "indexed": false,
          "internalType": "uint256",
          "name": "votes",
          "type": "uint256"
        }
      ],
      "name": "Votes",
      "type": "event"
    },
    {
      "inputs": [],
      "name": "admin",
      "outputs": [
        {
          "internalType": "address",
          "name": "",
          "type": "address"
        }
      ],
      "stateMutability": "view",
      "type": "function",
      "constant": true
    },
    {
      "inputs": [],
      "name": "availableFunds",
      "outputs": [
        {
          "internalType": "uint256",
          "name": "",
          "type": "uint256"
        }
      ],
      "stateMutability": "view",
      "type": "function",
      "constant": true
    },
    {
      "inputs": [
        {
          "internalType": "address",
          "name": "",
          "type": "address"
        }
      ],
      "name": "investors",
      "outputs": [
        {
          "internalType": "bool",
          "name": "",
          "type": "bool"
        }
      ],
      "stateMutability": "view",
      "type": "function",
      "constant": true
    },
    {
      "inputs": [],
      "name": "nextProposalId",
      "outputs": [
        {
          "internalType": "uint256",
          "name": "",
          "type": "uint256"
        }
      ],
      "stateMutability": "view",
      "type": "function",
      "constant": true
    },
    {
      "inputs": [
        {
          "internalType": "uint256",
          "name": "",
          "type": "uint256"
        }
      ],
      "name": "proposals",
      "outputs": [
        {
          "internalType": "uint256",
          "name": "id",
          "type": "uint256"
        },
        {
          "internalType": "string",
          "name": "name",
          "type": "string"
        },
        {
          "internalType": "uint256",
          "name": "amount",
          "type": "uint256"
        },
        {
          "internalType": "address payable",
          "name": "recipient",
          "type": "address"
        },
        {
          "internalType": "uint256",
          "name": "votes",
          "type": "uint256"
        },
        {
          "internalType": "uint256",
          "name": "end",
          "type": "uint256"
        },
        {
          "internalType": "enum DAO.Status",
          "name": "status",
          "type": "uint8"
        }
      ],
      "stateMutability": "view",
      "type": "function",
      "constant": true
    },
    {
      "inputs": [],
      "name": "quorum",
      "outputs": [
        {
          "internalType": "uint256",
          "name": "",
          "type": "uint256"
        }
      ],
      "stateMutability": "view",
      "type": "function",
      "constant": true
    },
    {
      "inputs": [
        {
          "internalType": "address",
          "name": "",
          "type": "address"
        }
      ],
      "name": "shares",
      "outputs": [
        {
          "internalType": "uint256",
          "name": "",
          "type": "uint256"
        }
      ],
      "stateMutability": "view",
      "type": "function",
      "constant": true
    },
    {
      "inputs": [],
      "name": "totalShares",
      "outputs": [
        {
          "internalType": "uint256",
          "name": "",
          "type": "uint256"
        }
      ],
      "stateMutability": "view",
      "type": "function",
      "constant": true
    },
    {
      "inputs": [],
      "name": "voteTime",
      "outputs": [
        {
          "internalType": "uint256",
          "name": "",
          "type": "uint256"
        }
      ],
      "stateMutability": "view",
      "type": "function",
      "constant": true
    },
    {
      "inputs": [
        {
          "internalType": "address",
          "name": "",
          "type": "address"
        },
        {
          "internalType": "uint256",
          "name": "",
          "type": "uint256"
        }
      ],
      "name": "votes",
      "outputs": [
        {
          "internalType": "bool",
          "name": "",
          "type": "bool"
        }
      ],
      "stateMutability": "view",
      "type": "function",
      "constant": true
    },
    {
      "stateMutability": "payable",
      "type": "receive",
      "payable": true
    },
    {
      "inputs": [],
      "name": "contribute",
      "outputs": [],
      "stateMutability": "payable",
      "type": "function",
      "payable": true
    },
    {
      "inputs": [
        {
          "internalType": "uint256",
          "name": "amount",
          "type": "uint256"
        }
      ],
      "name": "redeemShare",
      "outputs": [],
      "stateMutability": "nonpayable",
      "type": "function"
    },
    {
      "inputs": [
        {
          "internalType": "uint256",
          "name": "amount",
          "type": "uint256"
        },
        {
          "internalType": "address",
          "name": "to",
          "type": "address"
        }
      ],
      "name": "transferShare",
      "outputs": [],
      "stateMutability": "nonpayable",
      "type": "function"
    },
    {
      "inputs": [
        {
          "internalType": "string",
          "name": "name",
          "type": "string"
        },
        {
          "internalType": "uint256",
          "name": "amount",
          "type": "uint256"
        },
        {
          "internalType": "address payable",
          "name": "recipient",
          "type": "address"
        }
      ],
      "name": "createProposal",
      "outputs": [],
      "stateMutability": "nonpayable",
      "type": "function"
    },
    {
      "inputs": [
        {
          "internalType": "uint256",
          "name": "proposalId",
          "type": "uint256"
        }
      ],
      "name": "vote",
      "outputs": [],
      "stateMutability": "nonpayable",
      "type": "function"
    },
    {
      "inputs": [
        {
          "internalType": "uint256",
          "name": "proposalId",
          "type": "uint256"
        }
      ],
      "name": "executeProposal",
      "outputs": [],
      "stateMutability": "nonpayable",
      "type": "function"
    },
    {
      "inputs": [
        {
          "internalType": "uint256",
          "name": "amount",
          "type": "uint256"
        },
        {
          "internalType": "address payable",
          "name": "to",
          "type": "address"
        }
      ],
      "name": "withdrawEther",
      "outputs": [],
      "stateMutability": "nonpayable",
      "type": "function"
    },
    {
      "inputs": [
        {
          "internalType": "address payable",
          "name": "_admin",
          "type": "address"
        }
      ],
      "name": "setAdmin",
      "outputs": [],
      "stateMutability": "nonpayable",
      "type": "function"
    }
  ],
  "bytecode": "0x60806040523480156200001157600080fd5b50604051620025ce380380620025ce8339818101604052810190620000379190620000f8565b600081118015620000485750606481105b6200008a576040517f08c379a0000000000000000000000000000000000000000000000000000000008152600401620000819062000166565b60405180910390fd5b816007819055508060088190555033600960006101000a81548173ffffffffffffffffffffffffffffffffffffffff021916908373ffffffffffffffffffffffffffffffffffffffff1602179055505050620001eb565b600081519050620000f281620001d1565b92915050565b60008060408385031215620001125762000111620001a3565b5b60006200012285828601620000e1565b92505060206200013585828601620000e1565b9150509250929050565b60006200014e60208362000188565b91506200015b82620001a8565b602082019050919050565b6000602082019050818103600083015262000181816200013f565b9050919050565b600082825260208201905092915050565b6000819050919050565b600080fd5b7f71756f72756d206d757374206265206265747765656e203020616e6420313030600082015250565b620001dc8162000199565b8114620001e857600080fd5b50565b6123d380620001fb6000396000f3fe60806040526004361061010d5760003560e01c80636f7bc9be11610095578063bcf93dd611610064578063bcf93dd6146103ca578063ce56c454146103f5578063ce7c2ac21461041e578063d7bb99ba1461045b578063f851a4401461046557610166565b80636f7bc9be146102fe578063704b6c021461033b578063868643df146103645780639f2524ee1461038d57610166565b80631703a018116100dc5780631703a018146102295780632ab09d14146102545780633a98ef391461027f57806346fcff4c146102aa5780636ac1e01f146102d557610166565b80630121b93f1461016b578063013cf08b14610194578063039383e6146101d75780630d61b5191461020057610166565b366101665734600560008282546101249190611dc0565b925050819055507feee9b99e43cf47c0b059200515960a56b3ffc23ae0e8ecaf9f530832d310132b60055460405161015c9190611bf5565b60405180910390a1005b600080fd5b34801561017757600080fd5b50610192600480360381019061018d9190611867565b610490565b005b3480156101a057600080fd5b506101bb60048036038101906101b69190611867565b610727565b6040516101ce9796959493929190611caf565b60405180910390f35b3480156101e357600080fd5b506101fe60048036038101906101f99190611894565b61081e565b005b34801561020c57600080fd5b5061022760048036038101906102229190611867565b610a21565b005b34801561023557600080fd5b5061023e610c53565b60405161024b9190611bf5565b60405180910390f35b34801561026057600080fd5b50610269610c59565b6040516102769190611bf5565b60405180910390f35b34801561028b57600080fd5b50610294610c5f565b6040516102a19190611bf5565b60405180910390f35b3480156102b657600080fd5b506102bf610c65565b6040516102cc9190611bf5565b60405180910390f35b3480156102e157600080fd5b506102fc60048036038101906102f791906117f8565b610c6b565b005b34801561030a57600080fd5b506103256004803603810190610320919061175e565b610f45565b6040516103329190611ada565b60405180910390f35b34801561034757600080fd5b50610362600480360381019061035d919061178b565b610f65565b005b34801561037057600080fd5b5061038b60048036038101906103869190611867565b611039565b005b34801561039957600080fd5b506103b460048036038101906103af91906117b8565b611285565b6040516103c19190611ada565b60405180910390f35b3480156103d657600080fd5b506103df6112b4565b6040516103ec9190611bf5565b60405180910390f35b34801561040157600080fd5b5061041c600480360381019061041791906118d4565b6112ba565b005b34801561042a57600080fd5b506104456004803603810190610440919061175e565b6113ef565b6040516104529190611bf5565b60405180910390f35b610463611407565b005b34801561047157600080fd5b5061047a61159b565b6040516104879190611abf565b60405180910390f35b600115156000803373ffffffffffffffffffffffffffffffffffffffff1673ffffffffffffffffffffffffffffffffffffffff16815260200190815260200160002060009054906101000a900460ff16151514610522576040517f08c379a000000000000000000000000000000000000000000000000000000000815260040161051990611b95565b60405180910390fd5b600060036000838152602001908152602001600020905060001515600260003373ffffffffffffffffffffffffffffffffffffffff1673ffffffffffffffffffffffffffffffffffffffff168152602001908152602001600020600084815260200190815260200160002060009054906101000a900460ff161515146105dd576040517f08c379a00000000000000000000000000000000000000000000000000000000081526004016105d490611b15565b60405180910390fd5b80600501544210610623576040517f08c379a000000000000000000000000000000000000000000000000000000000815260040161061a90611b75565b60405180910390fd5b6001600260003373ffffffffffffffffffffffffffffffffffffffff1673ffffffffffffffffffffffffffffffffffffffff168152602001908152602001600020600084815260200190815260200160002060006101000a81548160ff021916908315150217905550600160003373ffffffffffffffffffffffffffffffffffffffff1673ffffffffffffffffffffffffffffffffffffffff168152602001908152602001600020548160040160008282546106df9190611dc0565b925050819055507ff81dd71faa7778033afde6ade3845126bd24a1ce19e005f8fc950e9f3c378c0682826004015460405161071b929190611d25565b60405180910390a15050565b600360205280600052604060002060009150905080600001549080600101805461075090611fa8565b80601f016020809104026020016040519081016040528092919081815260200182805461077c90611fa8565b80156107c95780601f1061079e576101008083540402835291602001916107c9565b820191906000526020600020905b8154815290600101906020018083116107ac57829003601f168201915b5050505050908060020154908060030160009054906101000a900473ffffffffffffffffffffffffffffffffffffffff16908060040154908060050154908060060160009054906101000a900460ff16905087565b81600160003373ffffffffffffffffffffffffffffffffffffffff1673ffffffffffffffffffffffffffffffffffffffff1681526020019081526020016000205410156108a0576040517f08c379a000000000000000000000000000000000000000000000000000000000815260040161089790611af5565b60405180910390fd5b81600160003373ffffffffffffffffffffffffffffffffffffffff1673ffffffffffffffffffffffffffffffffffffffff16815260200190815260200160002060008282546108ef9190611ea1565b9250508190555081600160008373ffffffffffffffffffffffffffffffffffffffff1673ffffffffffffffffffffffffffffffffffffffff16815260200190815260200160002060008282546109459190611dc0565b9250508190555060016000808373ffffffffffffffffffffffffffffffffffffffff1673ffffffffffffffffffffffffffffffffffffffff16815260200190815260200160002060006101000a81548160ff0219169083151502179055507f2efce8af138da85692f6f2adbdfd92f03f9c435e498715b020a2cddd96949bfe600160003373ffffffffffffffffffffffffffffffffffffffff1673ffffffffffffffffffffffffffffffffffffffff16815260200190815260200160002054600454604051610a15929190611d25565b60405180910390a15050565b60006003600083815260200190815260200160002090508060050154421015610a7f576040517f08c379a0000000000000000000000000000000000000000000000000000000008152600401610a7690611b35565b60405180910390fd5b60006002811115610a9357610a926120b2565b5b8160060160009054906101000a900460ff166002811115610ab757610ab66120b2565b5b14610af7576040517f08c379a0000000000000000000000000000000000000000000000000000000008152600401610aee90611bb5565b60405180910390fd5b60085460045460648360040154610b0e9190611e47565b610b189190611e16565b10610b8157610b4f81600201548260030160009054906101000a900473ffffffffffffffffffffffffffffffffffffffff166115c1565b60018160060160006101000a81548160ff02191690836002811115610b7757610b766120b2565b5b0217905550610bcc565b806002015460056000828254610b979190611dc0565b9250508190555060028160060160006101000a81548160ff02191690836002811115610bc657610bc56120b2565b5b02179055505b7feee9b99e43cf47c0b059200515960a56b3ffc23ae0e8ecaf9f530832d310132b600554604051610bfd9190611bf5565b60405180910390a17f14c6bf7cb2a79e7fe2b4bd97f91e7b6c9770af496299f3d906e64ac3e732a16c828260060160009054906101000a900460ff16604051610c47929190611c10565b60405180910390a15050565b60085481565b60065481565b60045481565b60055481565b600115156000803373ffffffffffffffffffffffffffffffffffffffff1673ffffffffffffffffffffffffffffffffffffffff16815260200190815260200160002060009054906101000a900460ff16151514610cfd576040517f08c379a0000000000000000000000000000000000000000000000000000000008152600401610cf490611b95565b60405180910390fd5b816005541015610d42576040517f08c379a0000000000000000000000000000000000000000000000000000000008152600401610d3990611bd5565b60405180910390fd5b6040518060e0016040528060065481526020018481526020018381526020018273ffffffffffffffffffffffffffffffffffffffff1681526020016000815260200160075442610d929190611dc0565b815260200160006002811115610dab57610daa6120b2565b5b815250600360006006548152602001908152602001600020600082015181600001556020820151816001019080519060200190610de992919061160c565b506040820151816002015560608201518160030160006101000a81548173ffffffffffffffffffffffffffffffffffffffff021916908373ffffffffffffffffffffffffffffffffffffffff1602179055506080820151816004015560a0820151816005015560c08201518160060160006101000a81548160ff02191690836002811115610e7a57610e796120b2565b5b02179055509050508160056000828254610e949190611ea1565b925050819055507feee9b99e43cf47c0b059200515960a56b3ffc23ae0e8ecaf9f530832d310132b600554604051610ecc9190611bf5565b60405180910390a17fbb67993411979c0db3f7869dcb8786e7918eea068c24a42e4180f405902a502e600654848484600060075442610f0b9190611dc0565b6000604051610f209796959493929190611c39565b60405180910390a160066000815480929190610f3b9061200b565b9190505550505050565b60006020528060005260406000206000915054906101000a900460ff1681565b600960009054906101000a900473ffffffffffffffffffffffffffffffffffffffff1673ffffffffffffffffffffffffffffffffffffffff163373ffffffffffffffffffffffffffffffffffffffff1614610ff5576040517f08c379a0000000000000000000000000000000000000000000000000000000008152600401610fec90611b55565b60405180910390fd5b80600960006101000a81548173ffffffffffffffffffffffffffffffffffffffff021916908373ffffffffffffffffffffffffffffffffffffffff16021790555050565b80600160003373ffffffffffffffffffffffffffffffffffffffff1673ffffffffffffffffffffffffffffffffffffffff1681526020019081526020016000205410156110bb576040517f08c379a00000000000000000000000000000000000000000000000000000000081526004016110b290611af5565b60405180910390fd5b806005541015611100576040517f08c379a00000000000000000000000000000000000000000000000000000000081526004016110f790611bd5565b60405180910390fd5b80600160003373ffffffffffffffffffffffffffffffffffffffff1673ffffffffffffffffffffffffffffffffffffffff168152602001908152602001600020600082825461114f9190611ea1565b9250508190555080600460008282546111689190611ea1565b9250508190555080600560008282546111819190611ea1565b925050819055503373ffffffffffffffffffffffffffffffffffffffff166108fc829081150290604051600060405180830381858888f193505050501580156111ce573d6000803e3d6000fd5b507f2efce8af138da85692f6f2adbdfd92f03f9c435e498715b020a2cddd96949bfe600160003373ffffffffffffffffffffffffffffffffffffffff1673ffffffffffffffffffffffffffffffffffffffff16815260200190815260200160002054600454604051611241929190611d25565b60405180910390a17feee9b99e43cf47c0b059200515960a56b3ffc23ae0e8ecaf9f530832d310132b60055460405161127a9190611bf5565b60405180910390a150565b60026020528160005260406000206020528060005260406000206000915091509054906101000a900460ff1681565b60075481565b600960009054906101000a900473ffffffffffffffffffffffffffffffffffffffff1673ffffffffffffffffffffffffffffffffffffffff163373ffffffffffffffffffffffffffffffffffffffff161461134a576040517f08c379a000000000000000000000000000000000000000000000000000000000815260040161134190611b55565b60405180910390fd5b81600554101561138f576040517f08c379a000000000000000000000000000000000000000000000000000000000815260040161138690611bd5565b60405180910390fd5b81600560008282546113a19190611ea1565b925050819055506113b282826115c1565b7feee9b99e43cf47c0b059200515960a56b3ffc23ae0e8ecaf9f530832d310132b6005546040516113e39190611bf5565b60405180910390a15050565b60016020528060005260406000206000915090505481565b60016000803373ffffffffffffffffffffffffffffffffffffffff1673ffffffffffffffffffffffffffffffffffffffff16815260200190815260200160002060006101000a81548160ff02191690831515021790555034600160003373ffffffffffffffffffffffffffffffffffffffff1673ffffffffffffffffffffffffffffffffffffffff16815260200190815260200160002060008282546114ad9190611dc0565b9250508190555034600460008282546114c69190611dc0565b9250508190555034600560008282546114df9190611dc0565b925050819055507f2efce8af138da85692f6f2adbdfd92f03f9c435e498715b020a2cddd96949bfe600160003373ffffffffffffffffffffffffffffffffffffffff1673ffffffffffffffffffffffffffffffffffffffff16815260200190815260200160002054600454604051611558929190611d25565b60405180910390a17feee9b99e43cf47c0b059200515960a56b3ffc23ae0e8ecaf9f530832d310132b6005546040516115919190611bf5565b60405180910390a1565b600960009054906101000a900473ffffffffffffffffffffffffffffffffffffffff1681565b8073ffffffffffffffffffffffffffffffffffffffff166108fc839081150290604051600060405180830381858888f19350505050158015611607573d6000803e3d6000fd5b505050565b82805461161890611fa8565b90600052602060002090601f01602090048101928261163a5760008555611681565b82601f1061165357805160ff1916838001178555611681565b82800160010185558215611681579182015b82811115611680578251825591602001919060010190611665565b5b50905061168e9190611692565b5090565b5b808211156116ab576000816000905550600101611693565b5090565b60006116c26116bd84611d73565b611d4e565b9050828152602081018484840111156116de576116dd612144565b5b6116e9848285611f66565b509392505050565b60008135905061170081612358565b92915050565b6000813590506117158161236f565b92915050565b600082601f8301126117305761172f61213f565b5b81356117408482602086016116af565b91505092915050565b60008135905061175881612386565b92915050565b6000602082840312156117745761177361214e565b5b6000611782848285016116f1565b91505092915050565b6000602082840312156117a1576117a061214e565b5b60006117af84828501611706565b91505092915050565b600080604083850312156117cf576117ce61214e565b5b60006117dd858286016116f1565b92505060206117ee85828601611749565b9150509250929050565b6000806000606084860312156118115761181061214e565b5b600084013567ffffffffffffffff81111561182f5761182e612149565b5b61183b8682870161171b565b935050602061184c86828701611749565b925050604061185d86828701611706565b9150509250925092565b60006020828403121561187d5761187c61214e565b5b600061188b84828501611749565b91505092915050565b600080604083850312156118ab576118aa61214e565b5b60006118b985828601611749565b92505060206118ca858286016116f1565b9150509250929050565b600080604083850312156118eb576118ea61214e565b5b60006118f985828601611749565b925050602061190a85828601611706565b9150509250929050565b61191d81611ee7565b82525050565b61192c81611ed5565b82525050565b61193b81611ef9565b82525050565b61194a81611f42565b82525050565b61195981611f54565b82525050565b600061196a82611da4565b6119748185611daf565b9350611984818560208601611f75565b61198d81612153565b840191505092915050565b60006119a5601183611daf565b91506119b082612164565b602082019050919050565b60006119c8602883611daf565b91506119d38261218d565b604082019050919050565b60006119eb602383611daf565b91506119f6826121dc565b604082019050919050565b6000611a0e600a83611daf565b9150611a198261222b565b602082019050919050565b6000611a31602583611daf565b9150611a3c82612254565b604082019050919050565b6000611a54600e83611daf565b9150611a5f826122a3565b602082019050919050565b6000611a77602883611daf565b9150611a82826122cc565b604082019050919050565b6000611a9a601a83611daf565b9150611aa58261231b565b602082019050919050565b611ab981611f38565b82525050565b6000602082019050611ad46000830184611923565b92915050565b6000602082019050611aef6000830184611932565b92915050565b60006020820190508181036000830152611b0e81611998565b9050919050565b60006020820190508181036000830152611b2e816119bb565b9050919050565b60006020820190508181036000830152611b4e816119de565b9050919050565b60006020820190508181036000830152611b6e81611a01565b9050919050565b60006020820190508181036000830152611b8e81611a24565b9050919050565b60006020820190508181036000830152611bae81611a47565b9050919050565b60006020820190508181036000830152611bce81611a6a565b9050919050565b60006020820190508181036000830152611bee81611a8d565b9050919050565b6000602082019050611c0a6000830184611ab0565b92915050565b6000604082019050611c256000830185611ab0565b611c326020830184611941565b9392505050565b600060e082019050611c4e600083018a611ab0565b8181036020830152611c60818961195f565b9050611c6f6040830188611ab0565b611c7c6060830187611914565b611c896080830186611950565b611c9660a0830185611ab0565b611ca360c0830184611941565b98975050505050505050565b600060e082019050611cc4600083018a611ab0565b8181036020830152611cd6818961195f565b9050611ce56040830188611ab0565b611cf26060830187611914565b611cff6080830186611ab0565b611d0c60a0830185611ab0565b611d1960c0830184611941565b98975050505050505050565b6000604082019050611d3a6000830185611ab0565b611d476020830184611ab0565b9392505050565b6000611d58611d69565b9050611d648282611fda565b919050565b6000604051905090565b600067ffffffffffffffff821115611d8e57611d8d612110565b5b611d9782612153565b9050602081019050919050565b600081519050919050565b600082825260208201905092915050565b6000611dcb82611f38565b9150611dd683611f38565b9250827fffffffffffffffffffffffffffffffffffffffffffffffffffffffffffffffff03821115611e0b57611e0a612054565b5b828201905092915050565b6000611e2182611f38565b9150611e2c83611f38565b925082611e3c57611e3b612083565b5b828204905092915050565b6000611e5282611f38565b9150611e5d83611f38565b9250817fffffffffffffffffffffffffffffffffffffffffffffffffffffffffffffffff0483118215151615611e9657611e95612054565b5b828202905092915050565b6000611eac82611f38565b9150611eb783611f38565b925082821015611eca57611ec9612054565b5b828203905092915050565b6000611ee082611f18565b9050919050565b6000611ef282611f18565b9050919050565b60008115159050919050565b6000819050611f1382612344565b919050565b600073ffffffffffffffffffffffffffffffffffffffff82169050919050565b6000819050919050565b6000611f4d82611f05565b9050919050565b6000611f5f82611f38565b9050919050565b82818337600083830152505050565b60005b83811015611f93578082015181840152602081019050611f78565b83811115611fa2576000848401525b50505050565b60006002820490506001821680611fc057607f821691505b60208210811415611fd457611fd36120e1565b5b50919050565b611fe382612153565b810181811067ffffffffffffffff8211171561200257612001612110565b5b80604052505050565b600061201682611f38565b91507fffffffffffffffffffffffffffffffffffffffffffffffffffffffffffffffff82141561204957612048612054565b5b600182019050919050565b7f4e487b7100000000000000000000000000000000000000000000000000000000600052601160045260246000fd5b7f4e487b7100000000000000000000000000000000000000000000000000000000600052601260045260246000fd5b7f4e487b7100000000000000000000000000000000000000000000000000000000600052602160045260246000fd5b7f4e487b7100000000000000000000000000000000000000000000000000000000600052602260045260246000fd5b7f4e487b7100000000000000000000000000000000000000000000000000000000600052604160045260246000fd5b600080fd5b600080fd5b600080fd5b600080fd5b6000601f19601f8301169050919050565b7f6e6f7420656e6f75676820736861726573000000000000000000000000000000600082015250565b7f696e766573746f722063616e206f6e6c7920766f7465206f6e6365207065722060008201527f70726f706f73616c000000000000000000000000000000000000000000000000602082015250565b7f74686520766f74696e6720706572696f64206973207374696c6c206e6f74206f60008201527f7665720000000000000000000000000000000000000000000000000000000000602082015250565b7f6f6e6c792061646d696e00000000000000000000000000000000000000000000600082015250565b7f63616e206f6e6c7920766f746520756e74696c2070726f706f73616c20656e6460008201527f2064617465000000000000000000000000000000000000000000000000000000602082015250565b7f6f6e6c7920696e766573746f7273000000000000000000000000000000000000600082015250565b7f63616e6e6f7420657865637574652070726f706f73616c20616c72656164792060008201527f6578656375746564000000000000000000000000000000000000000000000000602082015250565b7f6e6f7420656e6f75676820617661696c61626c652066756e6473000000000000600082015250565b60038110612355576123546120b2565b5b50565b61236181611ed5565b811461236c57600080fd5b50565b61237881611ee7565b811461238357600080fd5b50565b61238f81611f38565b811461239a57600080fd5b5056fea2646970667358221220f4be13435bdffcea6a02e7e1297455c4938fc078c0a4f1e17ceedd53c5371c4564736f6c63430008060033",
  "immutableReferences": {},
  "source": "// SPDX-License-Identifier: MIT\r\npragma solidity ^0.8.0;\r\n\r\ncontract DAO {  \r\n  enum Status { ongoing, executed, rejected }\r\n  \r\n  struct Proposal {\r\n    uint id;\r\n    string name;\r\n    uint amount;\r\n    address payable recipient;\r\n    uint votes;\r\n    uint end;\r\n    Status status;\r\n  }\r\n\r\n  mapping(address => bool) public investors;\r\n  mapping(address => uint) public shares;\r\n  mapping(address => mapping(uint => bool)) public votes;\r\n  mapping(uint => Proposal) public proposals;\r\n  uint public totalShares;\r\n  uint public availableFunds;\r\n  uint public nextProposalId;\r\n  uint public voteTime;\r\n  uint public quorum;\r\n  address public admin;\r\n\r\n  event Shares(uint shares, uint totalShares);\r\n  event Funds(uint availableFunds);\r\n  event Votes(uint id, uint votes);\r\n  event ExecuteProposal(uint id, Status status);\r\n  event NewProposal(\r\n    uint id,\r\n    string name,\r\n    uint amount,\r\n    address payable recipient,\r\n    uint votes,\r\n    uint end,\r\n    Status status\r\n  );\r\n\r\n  constructor(uint _voteTime, uint _quorum) {\r\n    require(_quorum > 0 && _quorum < 100, 'quorum must be between 0 and 100');\r\n    voteTime = _voteTime;\r\n    quorum = _quorum;\r\n    admin = msg.sender;\r\n  }  \r\n\r\n  function contribute() payable external {\r\n    investors[msg.sender] = true;\r\n    shares[msg.sender] += msg.value;\r\n    totalShares += msg.value;\r\n    availableFunds += msg.value;\r\n    emit Shares(shares[msg.sender], totalShares);\r\n    emit Funds(availableFunds);\r\n  }\r\n\r\n  function redeemShare(uint amount) external {\r\n    require(shares[msg.sender] >= amount, 'not enough shares');\r\n    require(availableFunds >= amount, 'not enough available funds');\r\n    shares[msg.sender] -= amount;\r\n    totalShares -= amount;\r\n    availableFunds -= amount;\r\n    payable(msg.sender).transfer(amount);\r\n    emit Shares(shares[msg.sender], totalShares);\r\n    emit Funds(availableFunds);\r\n  }\r\n\r\n  function transferShare(uint amount, address to) external {\r\n    require(shares[msg.sender] >= amount, 'not enough shares');\r\n    shares[msg.sender] -= amount;\r\n    shares[to] += amount;\r\n    investors[to] = true;\r\n    emit Shares(shares[msg.sender], totalShares);\r\n  }\r\n\r\n  function createProposal(string memory name, uint amount, address payable recipient) public onlyInvestors {\r\n    require(availableFunds >= amount, 'not enough available funds');\r\n    proposals[nextProposalId] = Proposal(\r\n      nextProposalId,\r\n      name,\r\n      amount,\r\n      recipient,\r\n      0,\r\n      block.timestamp + voteTime,\r\n      Status.ongoing\r\n    );    \r\n    availableFunds -= amount;\r\n    emit Funds(availableFunds);\r\n    emit NewProposal(nextProposalId, name, amount, recipient, 0, block.timestamp + voteTime, Status.ongoing);\r\n    nextProposalId ++;\r\n  }\r\n\r\n  function vote(uint proposalId) external onlyInvestors {\r\n    Proposal storage proposal = proposals[proposalId];\r\n    require(votes[msg.sender][proposalId] == false, 'investor can only vote once per proposal');\r\n    require(block.timestamp < proposal.end, 'can only vote until proposal end date');\r\n    votes[msg.sender][proposalId] = true;\r\n    proposal.votes += shares[msg.sender];\r\n    emit Votes(proposalId, proposal.votes);\r\n  }\r\n\r\n  function executeProposal(uint proposalId) external {\r\n    Proposal storage proposal = proposals[proposalId];\r\n    require(block.timestamp >= proposal.end, 'the voting period is still not over');\r\n    require(proposal.status == Status.ongoing, 'cannot execute proposal already executed');\r\n    if((proposal.votes * 100 / totalShares) >= quorum) {\r\n      _transferEther(proposal.amount, proposal.recipient);\r\n      proposal.status = Status.executed;\r\n    } else {\r\n      availableFunds += proposal.amount;\r\n      proposal.status = Status.rejected;\r\n    }    \r\n    emit Funds(availableFunds);\r\n    emit ExecuteProposal(proposalId, proposal.status);\r\n  }\r\n\r\n  function withdrawEther(uint amount, address payable to) external onlyAdmin {    \r\n    require(availableFunds >= amount, 'not enough available funds');\r\n    availableFunds -= amount;\r\n    _transferEther(amount, to);\r\n    emit Funds(availableFunds);\r\n  }\r\n\r\n  function _transferEther(uint amount, address payable to) internal {    \r\n    to.transfer(amount);\r\n  }\r\n\r\n  function setAdmin(address payable _admin) external onlyAdmin {\r\n    admin = _admin;\r\n  }\r\n\r\n  // For ether returns of proposal investment\r\n  receive() external payable {\r\n    availableFunds += msg.value;\r\n    emit Funds(availableFunds);\r\n  }\r\n\r\n  modifier onlyInvestors() {\r\n    require(investors[msg.sender] == true, 'only investors');\r\n    _;\r\n  }\r\n\r\n  modifier onlyAdmin() {\r\n    require(msg.sender == admin, 'only admin');\r\n    _;\r\n  }\r\n}",
  "sourcePath": "/mnt/c/Users/Lenovo/Desktop/Blockchain Developer/DApps/DAO/src/contracts/DAO.sol",
  "compiler": {
    "name": "solc",
    "version": "0.8.6+commit.11564f7e.Emscripten.clang"
  },
  "schemaVersion": "3.4.1",
  "updatedAt": "2021-07-28T09:24:24.123Z",
  "networkType": "ethereum",
  "devdoc": {
    "kind": "dev",
    "methods": {},
    "version": 1
  },
  "userdoc": {
    "kind": "user",
    "methods": {},
    "version": 1
  }
}