{
  "contractName": "DAO",
  "abi": [
    {
      "inputs": [
        {
          "internalType": "uint256",
          "name": "contributionTime",
          "type": "uint256"
        },
        {
          "internalType": "uint256",
          "name": "_voteTime",
          "type": "uint256"
        },
        {
          "internalType": "uint256",
          "name": "_quorum",
          "type": "uint256"
        }
      ],
      "stateMutability": "nonpayable",
      "type": "constructor"
    },
    {
      "inputs": [],
      "name": "admin",
      "outputs": [
        {
          "internalType": "address",
          "name": "",
          "type": "address"
        }
      ],
      "stateMutability": "view",
      "type": "function"
    },
    {
      "inputs": [],
      "name": "availableFunds",
      "outputs": [
        {
          "internalType": "uint256",
          "name": "",
          "type": "uint256"
        }
      ],
      "stateMutability": "view",
      "type": "function"
    },
    {
      "inputs": [],
      "name": "contributionEnd",
      "outputs": [
        {
          "internalType": "uint256",
          "name": "",
          "type": "uint256"
        }
      ],
      "stateMutability": "view",
      "type": "function"
    },
    {
      "inputs": [
        {
          "internalType": "address",
          "name": "",
          "type": "address"
        }
      ],
      "name": "investors",
      "outputs": [
        {
          "internalType": "bool",
          "name": "",
          "type": "bool"
        }
      ],
      "stateMutability": "view",
      "type": "function"
    },
    {
      "inputs": [],
      "name": "nextProposalId",
      "outputs": [
        {
          "internalType": "uint256",
          "name": "",
          "type": "uint256"
        }
      ],
      "stateMutability": "view",
      "type": "function"
    },
    {
      "inputs": [
        {
          "internalType": "uint256",
          "name": "",
          "type": "uint256"
        }
      ],
      "name": "proposals",
      "outputs": [
        {
          "internalType": "uint256",
          "name": "id",
          "type": "uint256"
        },
        {
          "internalType": "string",
          "name": "name",
          "type": "string"
        },
        {
          "internalType": "uint256",
          "name": "amount",
          "type": "uint256"
        },
        {
          "internalType": "address payable",
          "name": "recipient",
          "type": "address"
        },
        {
          "internalType": "uint256",
          "name": "votes",
          "type": "uint256"
        },
        {
          "internalType": "uint256",
          "name": "end",
          "type": "uint256"
        },
        {
          "internalType": "bool",
          "name": "executed",
          "type": "bool"
        }
      ],
      "stateMutability": "view",
      "type": "function"
    },
    {
      "inputs": [],
      "name": "quorum",
      "outputs": [
        {
          "internalType": "uint256",
          "name": "",
          "type": "uint256"
        }
      ],
      "stateMutability": "view",
      "type": "function"
    },
    {
      "inputs": [
        {
          "internalType": "address",
          "name": "",
          "type": "address"
        }
      ],
      "name": "shares",
      "outputs": [
        {
          "internalType": "uint256",
          "name": "",
          "type": "uint256"
        }
      ],
      "stateMutability": "view",
      "type": "function"
    },
    {
      "inputs": [],
      "name": "totalShares",
      "outputs": [
        {
          "internalType": "uint256",
          "name": "",
          "type": "uint256"
        }
      ],
      "stateMutability": "view",
      "type": "function"
    },
    {
      "inputs": [],
      "name": "voteTime",
      "outputs": [
        {
          "internalType": "uint256",
          "name": "",
          "type": "uint256"
        }
      ],
      "stateMutability": "view",
      "type": "function"
    },
    {
      "inputs": [
        {
          "internalType": "address",
          "name": "",
          "type": "address"
        },
        {
          "internalType": "uint256",
          "name": "",
          "type": "uint256"
        }
      ],
      "name": "votes",
      "outputs": [
        {
          "internalType": "bool",
          "name": "",
          "type": "bool"
        }
      ],
      "stateMutability": "view",
      "type": "function"
    },
    {
      "stateMutability": "payable",
      "type": "receive"
    },
    {
      "inputs": [],
      "name": "contribute",
      "outputs": [],
      "stateMutability": "payable",
      "type": "function"
    },
    {
      "inputs": [
        {
          "internalType": "uint256",
          "name": "amount",
          "type": "uint256"
        }
      ],
      "name": "redeemShare",
      "outputs": [],
      "stateMutability": "nonpayable",
      "type": "function"
    },
    {
      "inputs": [
        {
          "internalType": "uint256",
          "name": "amount",
          "type": "uint256"
        },
        {
          "internalType": "address",
          "name": "to",
          "type": "address"
        }
      ],
      "name": "transferShare",
      "outputs": [],
      "stateMutability": "nonpayable",
      "type": "function"
    },
    {
      "inputs": [
        {
          "internalType": "string",
          "name": "name",
          "type": "string"
        },
        {
          "internalType": "uint256",
          "name": "amount",
          "type": "uint256"
        },
        {
          "internalType": "address payable",
          "name": "recipient",
          "type": "address"
        }
      ],
      "name": "createProposal",
      "outputs": [],
      "stateMutability": "nonpayable",
      "type": "function"
    },
    {
      "inputs": [
        {
          "internalType": "uint256",
          "name": "proposalId",
          "type": "uint256"
        }
      ],
      "name": "vote",
      "outputs": [],
      "stateMutability": "nonpayable",
      "type": "function"
    },
    {
      "inputs": [
        {
          "internalType": "uint256",
          "name": "proposalId",
          "type": "uint256"
        }
      ],
      "name": "executeProposal",
      "outputs": [],
      "stateMutability": "nonpayable",
      "type": "function"
    },
    {
      "inputs": [
        {
          "internalType": "uint256",
          "name": "amount",
          "type": "uint256"
        },
        {
          "internalType": "address payable",
          "name": "to",
          "type": "address"
        }
      ],
      "name": "withdrawEther",
      "outputs": [],
      "stateMutability": "nonpayable",
      "type": "function"
    }
  ],
  "bytecode": "0x60806040523480156200001157600080fd5b50604051620021ea380380620021ea83398181016040528101906200003791906200010d565b600081118015620000485750606481105b6200008a576040517f08c379a0000000000000000000000000000000000000000000000000000000008152600401620000819062000190565b60405180910390fd5b8242620000989190620001c3565b600681905550816008819055508060098190555033600a60006101000a81548173ffffffffffffffffffffffffffffffffffffffff021916908373ffffffffffffffffffffffffffffffffffffffff160217905550505050620002a1565b600081519050620001078162000287565b92915050565b60008060006060848603121562000129576200012862000259565b5b60006200013986828701620000f6565b93505060206200014c86828701620000f6565b92505060406200015f86828701620000f6565b9150509250925092565b600062000178602083620001b2565b915062000185826200025e565b602082019050919050565b60006020820190508181036000830152620001ab8162000169565b9050919050565b600082825260208201905092915050565b6000620001d08262000220565b9150620001dd8362000220565b9250827fffffffffffffffffffffffffffffffffffffffffffffffffffffffffffffffff038211156200021557620002146200022a565b5b828201905092915050565b6000819050919050565b7f4e487b7100000000000000000000000000000000000000000000000000000000600052601160045260246000fd5b600080fd5b7f71756f72756d206d757374206265206265747765656e203020616e6420313030600082015250565b620002928162000220565b81146200029e57600080fd5b50565b611f3980620002b16000396000f3fe60806040526004361061010d5760003560e01c80636f7bc9be11610095578063ce56c45411610064578063ce56c45414610393578063ce7c2ac2146103bc578063d151b516146103f9578063d7bb99ba14610424578063f851a4401461042e5761012d565b80636f7bc9be146102c5578063868643df146103025780639f2524ee1461032b578063bcf93dd6146103685761012d565b80631703a018116100dc5780631703a018146101f05780632ab09d141461021b5780633a98ef391461024657806346fcff4c146102715780636ac1e01f1461029c5761012d565b80630121b93f14610132578063013cf08b1461015b578063039383e61461019e5780630d61b519146101c75761012d565b3661012d5734600560008282546101249190611902565b92505081905550005b600080fd5b34801561013e57600080fd5b5061015960048036038101906101549190611409565b610459565b005b34801561016757600080fd5b50610182600480360381019061017d9190611409565b6106b3565b604051610195979695949392919061181a565b60405180910390f35b3480156101aa57600080fd5b506101c560048036038101906101c09190611436565b6107aa565b005b3480156101d357600080fd5b506101ee60048036038101906101e99190611409565b610933565b005b3480156101fc57600080fd5b50610205610b2e565b60405161021291906117ff565b60405180910390f35b34801561022757600080fd5b50610230610b34565b60405161023d91906117ff565b60405180910390f35b34801561025257600080fd5b5061025b610b3a565b60405161026891906117ff565b60405180910390f35b34801561027d57600080fd5b50610286610b40565b60405161029391906117ff565b60405180910390f35b3480156102a857600080fd5b506102c360048036038101906102be919061139a565b610b46565b005b3480156102d157600080fd5b506102ec60048036038101906102e7919061132d565b610d73565b6040516102f991906116a4565b60405180910390f35b34801561030e57600080fd5b5061032960048036038101906103249190611409565b610d93565b005b34801561033757600080fd5b50610352600480360381019061034d919061135a565b610f2c565b60405161035f91906116a4565b60405180910390f35b34801561037457600080fd5b5061037d610f5b565b60405161038a91906117ff565b60405180910390f35b34801561039f57600080fd5b506103ba60048036038101906103b59190611476565b610f61565b005b3480156103c857600080fd5b506103e360048036038101906103de919061132d565b610fff565b6040516103f091906117ff565b60405180910390f35b34801561040557600080fd5b5061040e611017565b60405161041b91906117ff565b60405180910390f35b61042c61101d565b005b34801561043a57600080fd5b50610443611142565b6040516104509190611689565b60405180910390f35b600115156000803373ffffffffffffffffffffffffffffffffffffffff1673ffffffffffffffffffffffffffffffffffffffff16815260200190815260200160002060009054906101000a900460ff161515146104eb576040517f08c379a00000000000000000000000000000000000000000000000000000000081526004016104e29061177f565b60405180910390fd5b600060036000838152602001908152602001600020905060001515600260003373ffffffffffffffffffffffffffffffffffffffff1673ffffffffffffffffffffffffffffffffffffffff168152602001908152602001600020600084815260200190815260200160002060009054906101000a900460ff161515146105a6576040517f08c379a000000000000000000000000000000000000000000000000000000000815260040161059d906116df565b60405180910390fd5b806005015442106105ec576040517f08c379a00000000000000000000000000000000000000000000000000000000081526004016105e39061175f565b60405180910390fd5b6001600260003373ffffffffffffffffffffffffffffffffffffffff1673ffffffffffffffffffffffffffffffffffffffff168152602001908152602001600020600084815260200190815260200160002060006101000a81548160ff021916908315150217905550600160003373ffffffffffffffffffffffffffffffffffffffff1673ffffffffffffffffffffffffffffffffffffffff168152602001908152602001600020548160040160008282546106a89190611902565b925050819055505050565b60036020528060005260406000206000915090508060000154908060010180546106dc90611ab3565b80601f016020809104026020016040519081016040528092919081815260200182805461070890611ab3565b80156107555780601f1061072a57610100808354040283529160200191610755565b820191906000526020600020905b81548152906001019060200180831161073857829003601f168201915b5050505050908060020154908060030160009054906101000a900473ffffffffffffffffffffffffffffffffffffffff16908060040154908060050154908060060160009054906101000a900460ff16905087565b81600160003373ffffffffffffffffffffffffffffffffffffffff1673ffffffffffffffffffffffffffffffffffffffff16815260200190815260200160002054101561082c576040517f08c379a0000000000000000000000000000000000000000000000000000000008152600401610823906116bf565b60405180910390fd5b81600160003373ffffffffffffffffffffffffffffffffffffffff1673ffffffffffffffffffffffffffffffffffffffff168152602001908152602001600020600082825461087b91906119e3565b9250508190555081600160008373ffffffffffffffffffffffffffffffffffffffff1673ffffffffffffffffffffffffffffffffffffffff16815260200190815260200160002060008282546108d19190611902565b9250508190555060016000808373ffffffffffffffffffffffffffffffffffffffff1673ffffffffffffffffffffffffffffffffffffffff16815260200190815260200160002060006101000a81548160ff0219169083151502179055505050565b600a60009054906101000a900473ffffffffffffffffffffffffffffffffffffffff1673ffffffffffffffffffffffffffffffffffffffff163373ffffffffffffffffffffffffffffffffffffffff16146109c3576040517f08c379a00000000000000000000000000000000000000000000000000000000081526004016109ba9061171f565b60405180910390fd5b60006003600083815260200190815260200160002090508060050154421015610a21576040517f08c379a0000000000000000000000000000000000000000000000000000000008152600401610a18906116ff565b60405180910390fd5b600015158160060160009054906101000a900460ff16151514610a79576040517f08c379a0000000000000000000000000000000000000000000000000000000008152600401610a709061173f565b60405180910390fd5b60095460646004548360040154610a909190611958565b610a9a9190611989565b1015610adb576040517f08c379a0000000000000000000000000000000000000000000000000000000008152600401610ad29061179f565b60405180910390fd5b610b0d81600201548260030160009054906101000a900473ffffffffffffffffffffffffffffffffffffffff16611168565b60018160060160006101000a81548160ff0219169083151502179055505050565b60095481565b60075481565b60045481565b60055481565b600115156000803373ffffffffffffffffffffffffffffffffffffffff1673ffffffffffffffffffffffffffffffffffffffff16815260200190815260200160002060009054906101000a900460ff16151514610bd8576040517f08c379a0000000000000000000000000000000000000000000000000000000008152600401610bcf9061177f565b60405180910390fd5b816005541015610c1d576040517f08c379a0000000000000000000000000000000000000000000000000000000008152600401610c14906117df565b60405180910390fd5b6040518060e0016040528060075481526020018481526020018381526020018273ffffffffffffffffffffffffffffffffffffffff1681526020016000815260200160085442610c6d9190611902565b815260200160001515815250600360006007548152602001908152602001600020600082015181600001556020820151816001019080519060200190610cb49291906111db565b506040820151816002015560608201518160030160006101000a81548173ffffffffffffffffffffffffffffffffffffffff021916908373ffffffffffffffffffffffffffffffffffffffff1602179055506080820151816004015560a0820151816005015560c08201518160060160006101000a81548160ff02191690831515021790555090505060076000815480929190610d5090611b16565b91905055508160056000828254610d6791906119e3565b92505081905550505050565b60006020528060005260406000206000915054906101000a900460ff1681565b80600160003373ffffffffffffffffffffffffffffffffffffffff1673ffffffffffffffffffffffffffffffffffffffff168152602001908152602001600020541015610e15576040517f08c379a0000000000000000000000000000000000000000000000000000000008152600401610e0c906116bf565b60405180910390fd5b806005541015610e5a576040517f08c379a0000000000000000000000000000000000000000000000000000000008152600401610e51906117df565b60405180910390fd5b80600160003373ffffffffffffffffffffffffffffffffffffffff1673ffffffffffffffffffffffffffffffffffffffff1681526020019081526020016000206000828254610ea991906119e3565b925050819055508060046000828254610ec291906119e3565b925050819055508060056000828254610edb91906119e3565b925050819055503373ffffffffffffffffffffffffffffffffffffffff166108fc829081150290604051600060405180830381858888f19350505050158015610f28573d6000803e3d6000fd5b5050565b60026020528160005260406000206020528060005260406000206000915091509054906101000a900460ff1681565b60085481565b600a60009054906101000a900473ffffffffffffffffffffffffffffffffffffffff1673ffffffffffffffffffffffffffffffffffffffff163373ffffffffffffffffffffffffffffffffffffffff1614610ff1576040517f08c379a0000000000000000000000000000000000000000000000000000000008152600401610fe89061171f565b60405180910390fd5b610ffb8282611168565b5050565b60016020528060005260406000206000915090505481565b60065481565b6006544210611061576040517f08c379a0000000000000000000000000000000000000000000000000000000008152600401611058906117bf565b60405180910390fd5b60016000803373ffffffffffffffffffffffffffffffffffffffff1673ffffffffffffffffffffffffffffffffffffffff16815260200190815260200160002060006101000a81548160ff02191690831515021790555034600160003373ffffffffffffffffffffffffffffffffffffffff1673ffffffffffffffffffffffffffffffffffffffff16815260200190815260200160002060008282546111079190611902565b9250508190555034600460008282546111209190611902565b9250508190555034600560008282546111399190611902565b92505081905550565b600a60009054906101000a900473ffffffffffffffffffffffffffffffffffffffff1681565b81600554101561117757600080fd5b816005600082825461118991906119e3565b925050819055508073ffffffffffffffffffffffffffffffffffffffff166108fc839081150290604051600060405180830381858888f193505050501580156111d6573d6000803e3d6000fd5b505050565b8280546111e790611ab3565b90600052602060002090601f0160209004810192826112095760008555611250565b82601f1061122257805160ff1916838001178555611250565b82800160010185558215611250579182015b8281111561124f578251825591602001919060010190611234565b5b50905061125d9190611261565b5090565b5b8082111561127a576000816000905550600101611262565b5090565b600061129161128c846118b5565b611890565b9050828152602081018484840111156112ad576112ac611c20565b5b6112b8848285611a71565b509392505050565b6000813590506112cf81611ebe565b92915050565b6000813590506112e481611ed5565b92915050565b600082601f8301126112ff576112fe611c1b565b5b813561130f84826020860161127e565b91505092915050565b60008135905061132781611eec565b92915050565b60006020828403121561134357611342611c2a565b5b6000611351848285016112c0565b91505092915050565b6000806040838503121561137157611370611c2a565b5b600061137f858286016112c0565b925050602061139085828601611318565b9150509250929050565b6000806000606084860312156113b3576113b2611c2a565b5b600084013567ffffffffffffffff8111156113d1576113d0611c25565b5b6113dd868287016112ea565b93505060206113ee86828701611318565b92505060406113ff868287016112d5565b9150509250925092565b60006020828403121561141f5761141e611c2a565b5b600061142d84828501611318565b91505092915050565b6000806040838503121561144d5761144c611c2a565b5b600061145b85828601611318565b925050602061146c858286016112c0565b9150509250929050565b6000806040838503121561148d5761148c611c2a565b5b600061149b85828601611318565b92505060206114ac858286016112d5565b9150509250929050565b6114bf81611a29565b82525050565b6114ce81611a17565b82525050565b6114dd81611a3b565b82525050565b60006114ee826118e6565b6114f881856118f1565b9350611508818560208601611a80565b61151181611c2f565b840191505092915050565b60006115296011836118f1565b915061153482611c40565b602082019050919050565b600061154c6028836118f1565b915061155782611c69565b604082019050919050565b600061156f6023836118f1565b915061157a82611cb8565b604082019050919050565b6000611592600a836118f1565b915061159d82611d07565b602082019050919050565b60006115b56021836118f1565b91506115c082611d30565b604082019050919050565b60006115d86025836118f1565b91506115e382611d7f565b604082019050919050565b60006115fb600e836118f1565b915061160682611dce565b602082019050919050565b600061161e6031836118f1565b915061162982611df7565b604082019050919050565b60006116416027836118f1565b915061164c82611e46565b604082019050919050565b6000611664601a836118f1565b915061166f82611e95565b602082019050919050565b61168381611a67565b82525050565b600060208201905061169e60008301846114c5565b92915050565b60006020820190506116b960008301846114d4565b92915050565b600060208201905081810360008301526116d88161151c565b9050919050565b600060208201905081810360008301526116f88161153f565b9050919050565b6000602082019050818103600083015261171881611562565b9050919050565b6000602082019050818103600083015261173881611585565b9050919050565b60006020820190508181036000830152611758816115a8565b9050919050565b60006020820190508181036000830152611778816115cb565b9050919050565b60006020820190508181036000830152611798816115ee565b9050919050565b600060208201905081810360008301526117b881611611565b9050919050565b600060208201905081810360008301526117d881611634565b9050919050565b600060208201905081810360008301526117f881611657565b9050919050565b6000602082019050611814600083018461167a565b92915050565b600060e08201905061182f600083018a61167a565b818103602083015261184181896114e3565b9050611850604083018861167a565b61185d60608301876114b6565b61186a608083018661167a565b61187760a083018561167a565b61188460c08301846114d4565b98975050505050505050565b600061189a6118ab565b90506118a68282611ae5565b919050565b6000604051905090565b600067ffffffffffffffff8211156118d0576118cf611bec565b5b6118d982611c2f565b9050602081019050919050565b600081519050919050565b600082825260208201905092915050565b600061190d82611a67565b915061191883611a67565b9250827fffffffffffffffffffffffffffffffffffffffffffffffffffffffffffffffff0382111561194d5761194c611b5f565b5b828201905092915050565b600061196382611a67565b915061196e83611a67565b92508261197e5761197d611b8e565b5b828204905092915050565b600061199482611a67565b915061199f83611a67565b9250817fffffffffffffffffffffffffffffffffffffffffffffffffffffffffffffffff04831182151516156119d8576119d7611b5f565b5b828202905092915050565b60006119ee82611a67565b91506119f983611a67565b925082821015611a0c57611a0b611b5f565b5b828203905092915050565b6000611a2282611a47565b9050919050565b6000611a3482611a47565b9050919050565b60008115159050919050565b600073ffffffffffffffffffffffffffffffffffffffff82169050919050565b6000819050919050565b82818337600083830152505050565b60005b83811015611a9e578082015181840152602081019050611a83565b83811115611aad576000848401525b50505050565b60006002820490506001821680611acb57607f821691505b60208210811415611adf57611ade611bbd565b5b50919050565b611aee82611c2f565b810181811067ffffffffffffffff82111715611b0d57611b0c611bec565b5b80604052505050565b6000611b2182611a67565b91507fffffffffffffffffffffffffffffffffffffffffffffffffffffffffffffffff821415611b5457611b53611b5f565b5b600182019050919050565b7f4e487b7100000000000000000000000000000000000000000000000000000000600052601160045260246000fd5b7f4e487b7100000000000000000000000000000000000000000000000000000000600052601260045260246000fd5b7f4e487b7100000000000000000000000000000000000000000000000000000000600052602260045260246000fd5b7f4e487b7100000000000000000000000000000000000000000000000000000000600052604160045260246000fd5b600080fd5b600080fd5b600080fd5b600080fd5b6000601f19601f8301169050919050565b7f6e6f7420656e6f75676820736861726573000000000000000000000000000000600082015250565b7f696e766573746f722063616e206f6e6c7920766f7465206f6e6365207065722060008201527f70726f706f73616c000000000000000000000000000000000000000000000000602082015250565b7f74686520766f74696e6720706572696f64206973207374696c6c206e6f74206f60008201527f7665720000000000000000000000000000000000000000000000000000000000602082015250565b7f6f6e6c792061646d696e00000000000000000000000000000000000000000000600082015250565b7f7468652070726f706f73616c2077617320616c7265616479206578656375746560008201527f6400000000000000000000000000000000000000000000000000000000000000602082015250565b7f63616e206f6e6c7920766f746520756e74696c2070726f706f73616c20656e6460008201527f2064617465000000000000000000000000000000000000000000000000000000602082015250565b7f6f6e6c7920696e766573746f7273000000000000000000000000000000000000600082015250565b7f63616e6e6f7420657865637574652070726f706f73616c207769746820766f7460008201527f657320232062656c6f772071756f72756d000000000000000000000000000000602082015250565b7f63616e6e6f7420636f6e7472696275746520616674657220636f6e747269627560008201527f74696f6e456e6400000000000000000000000000000000000000000000000000602082015250565b7f6e6f7420656e6f75676820617661696c61626c652066756e6473000000000000600082015250565b611ec781611a17565b8114611ed257600080fd5b50565b611ede81611a29565b8114611ee957600080fd5b50565b611ef581611a67565b8114611f0057600080fd5b5056fea26469706673582212208f026cac621385e129df3d234ecad84376298a06ce364d4a1dfcc46c3df686b264736f6c63430008060033",
  "immutableReferences": {},
  "source": "// SPDX-License-Identifier: MIT\r\npragma solidity ^0.8.0;\r\n\r\n/**\r\n * DAO contract:\r\n * 1. Collects investors money (ether) & allocate shares\r\n * 2. Keep track of investor contributions with shares\r\n * 3. Allow investors to transfer shares\r\n * 4. allow investment proposals to be created and voted\r\n * 5. execute successful investment proposals (i.e send money)\r\n */\r\n\r\ncontract DAO {\r\n  struct Proposal {\r\n    uint id;\r\n    string name;\r\n    uint amount;\r\n    address payable recipient;\r\n    uint votes;\r\n    uint end;\r\n    bool executed;\r\n  }\r\n\r\n  mapping(address => bool) public investors;\r\n  mapping(address => uint) public shares;\r\n  mapping(address => mapping(uint => bool)) public votes;\r\n  mapping(uint => Proposal) public proposals;\r\n  uint public totalShares;\r\n  uint public availableFunds;\r\n  uint public contributionEnd;\r\n  uint public nextProposalId;\r\n  uint public voteTime;\r\n  uint public quorum;\r\n  address public admin;\r\n\r\n  constructor(uint contributionTime, uint _voteTime, uint _quorum) {\r\n    require(_quorum > 0 && _quorum < 100, 'quorum must be between 0 and 100');\r\n    contributionEnd = block.timestamp + contributionTime;\r\n    voteTime = _voteTime;\r\n    quorum = _quorum;\r\n    admin = msg.sender;\r\n  }\r\n\r\n  function contribute() payable external {\r\n    require(block.timestamp < contributionEnd, 'cannot contribute after contributionEnd');\r\n    investors[msg.sender] = true;\r\n    shares[msg.sender] += msg.value;\r\n    totalShares += msg.value;\r\n    availableFunds += msg.value;\r\n  }\r\n\r\n  function redeemShare(uint amount) external {\r\n    require(shares[msg.sender] >= amount, 'not enough shares');\r\n    require(availableFunds >= amount, 'not enough available funds');\r\n    shares[msg.sender] -= amount;\r\n    totalShares -= amount;\r\n    availableFunds -= amount;\r\n    payable(msg.sender).transfer(amount);\r\n  }\r\n\r\n  function transferShare(uint amount, address to) external {\r\n    require(shares[msg.sender] >= amount, 'not enough shares');\r\n    shares[msg.sender] -= amount;\r\n    shares[to] += amount;\r\n    investors[to] = true;\r\n  }\r\n\r\n  function createProposal(string memory name, uint amount, address payable recipient) public onlyInvestors() {\r\n    require(availableFunds >= amount, 'not enough available funds');\r\n    proposals[nextProposalId] = Proposal(\r\n      nextProposalId,\r\n      name,\r\n      amount,\r\n      recipient,\r\n      0,\r\n      block.timestamp + voteTime,\r\n      false\r\n    );\r\n    nextProposalId ++;\r\n    availableFunds -= amount;\r\n  }\r\n\r\n  function vote(uint proposalId) external onlyInvestors() {\r\n    Proposal storage proposal = proposals[proposalId];\r\n    require(votes[msg.sender][proposalId] ==false, 'investor can only vote once per proposal');\r\n    require(block.timestamp < proposal.end, 'can only vote until proposal end date');\r\n    votes[msg.sender][proposalId] = true;\r\n    proposal.votes +=shares[msg.sender];\r\n  }\r\n\r\n  function executeProposal(uint proposalId) external onlyAdmin {\r\n    Proposal storage proposal = proposals[proposalId];\r\n    require(block.timestamp >= proposal.end, 'the voting period is still not over');\r\n    require(proposal.executed == false, 'the proposal was already executed');\r\n    require((proposal.votes / totalShares) * 100 >= quorum, 'cannot execute proposal with votes # below quorum');\r\n    _transferEther(proposal.amount, proposal.recipient);\r\n    proposal.executed = true;\r\n  }\r\n\r\n  function withdrawEther(uint amount, address payable to) external onlyAdmin() {    \r\n    _transferEther(amount, to);\r\n  }\r\n\r\n  function _transferEther(uint amount, address payable to) internal {\r\n    require(availableFunds >= amount);\r\n    availableFunds -= amount;\r\n    to.transfer(amount);\r\n  }\r\n\r\n  // For ether returns of proposal investment\r\n  receive() external payable {\r\n    availableFunds += msg.value;\r\n  }\r\n\r\n  modifier onlyInvestors() {\r\n    require(investors[msg.sender] ==true, 'only investors');\r\n    _;\r\n  }\r\n\r\n  modifier onlyAdmin() {\r\n    require(msg.sender == admin, 'only admin');\r\n    _;\r\n  }\r\n}",
  "sourcePath": "/mnt/c/Users/Lenovo/Desktop/Blockchain Developer/DApps/DAO/src/contracts/DAO.sol",
  "compiler": {
    "name": "solc",
    "version": "0.8.6+commit.11564f7e.Emscripten.clang"
  },
  "schemaVersion": "3.4.1",
  "updatedAt": "2021-07-20T09:23:13.578Z",
  "devdoc": {
    "kind": "dev",
    "methods": {},
    "version": 1
  },
  "userdoc": {
    "kind": "user",
    "methods": {},
    "notice": "DAO contract: 1. Collects investors money (ether) & allocate shares 2. Keep track of investor contributions with shares 3. Allow investors to transfer shares 4. allow investment proposals to be created and voted 5. execute successful investment proposals (i.e send money)",
    "version": 1
  }
}