{
  "contractName": "DAO",
  "abi": [
    {
      "inputs": [
        {
          "internalType": "uint256",
          "name": "contributionTime",
          "type": "uint256"
        },
        {
          "internalType": "uint256",
          "name": "_voteTime",
          "type": "uint256"
        },
        {
          "internalType": "uint256",
          "name": "_quorum",
          "type": "uint256"
        }
      ],
      "stateMutability": "nonpayable",
      "type": "constructor"
    },
    {
      "inputs": [],
      "name": "admin",
      "outputs": [
        {
          "internalType": "address",
          "name": "",
          "type": "address"
        }
      ],
      "stateMutability": "view",
      "type": "function",
      "constant": true
    },
    {
      "inputs": [],
      "name": "availableFunds",
      "outputs": [
        {
          "internalType": "uint256",
          "name": "",
          "type": "uint256"
        }
      ],
      "stateMutability": "view",
      "type": "function",
      "constant": true
    },
    {
      "inputs": [],
      "name": "contributionEnd",
      "outputs": [
        {
          "internalType": "uint256",
          "name": "",
          "type": "uint256"
        }
      ],
      "stateMutability": "view",
      "type": "function",
      "constant": true
    },
    {
      "inputs": [
        {
          "internalType": "address",
          "name": "",
          "type": "address"
        }
      ],
      "name": "investors",
      "outputs": [
        {
          "internalType": "bool",
          "name": "",
          "type": "bool"
        }
      ],
      "stateMutability": "view",
      "type": "function",
      "constant": true
    },
    {
      "inputs": [],
      "name": "nextProposalId",
      "outputs": [
        {
          "internalType": "uint256",
          "name": "",
          "type": "uint256"
        }
      ],
      "stateMutability": "view",
      "type": "function",
      "constant": true
    },
    {
      "inputs": [
        {
          "internalType": "uint256",
          "name": "",
          "type": "uint256"
        }
      ],
      "name": "proposals",
      "outputs": [
        {
          "internalType": "uint256",
          "name": "id",
          "type": "uint256"
        },
        {
          "internalType": "string",
          "name": "name",
          "type": "string"
        },
        {
          "internalType": "uint256",
          "name": "amount",
          "type": "uint256"
        },
        {
          "internalType": "address payable",
          "name": "recipient",
          "type": "address"
        },
        {
          "internalType": "uint256",
          "name": "votes",
          "type": "uint256"
        },
        {
          "internalType": "uint256",
          "name": "end",
          "type": "uint256"
        },
        {
          "internalType": "bool",
          "name": "executed",
          "type": "bool"
        }
      ],
      "stateMutability": "view",
      "type": "function",
      "constant": true
    },
    {
      "inputs": [],
      "name": "quorum",
      "outputs": [
        {
          "internalType": "uint256",
          "name": "",
          "type": "uint256"
        }
      ],
      "stateMutability": "view",
      "type": "function",
      "constant": true
    },
    {
      "inputs": [
        {
          "internalType": "address",
          "name": "",
          "type": "address"
        }
      ],
      "name": "shares",
      "outputs": [
        {
          "internalType": "uint256",
          "name": "",
          "type": "uint256"
        }
      ],
      "stateMutability": "view",
      "type": "function",
      "constant": true
    },
    {
      "inputs": [],
      "name": "totalShares",
      "outputs": [
        {
          "internalType": "uint256",
          "name": "",
          "type": "uint256"
        }
      ],
      "stateMutability": "view",
      "type": "function",
      "constant": true
    },
    {
      "inputs": [],
      "name": "voteTime",
      "outputs": [
        {
          "internalType": "uint256",
          "name": "",
          "type": "uint256"
        }
      ],
      "stateMutability": "view",
      "type": "function",
      "constant": true
    },
    {
      "inputs": [
        {
          "internalType": "address",
          "name": "",
          "type": "address"
        },
        {
          "internalType": "uint256",
          "name": "",
          "type": "uint256"
        }
      ],
      "name": "votes",
      "outputs": [
        {
          "internalType": "bool",
          "name": "",
          "type": "bool"
        }
      ],
      "stateMutability": "view",
      "type": "function",
      "constant": true
    },
    {
      "stateMutability": "payable",
      "type": "receive",
      "payable": true
    },
    {
      "inputs": [],
      "name": "contribute",
      "outputs": [],
      "stateMutability": "payable",
      "type": "function",
      "payable": true
    },
    {
      "inputs": [
        {
          "internalType": "uint256",
          "name": "amount",
          "type": "uint256"
        }
      ],
      "name": "redeemShare",
      "outputs": [],
      "stateMutability": "nonpayable",
      "type": "function"
    },
    {
      "inputs": [
        {
          "internalType": "uint256",
          "name": "amount",
          "type": "uint256"
        },
        {
          "internalType": "address",
          "name": "to",
          "type": "address"
        }
      ],
      "name": "transferShare",
      "outputs": [],
      "stateMutability": "nonpayable",
      "type": "function"
    },
    {
      "inputs": [
        {
          "internalType": "string",
          "name": "name",
          "type": "string"
        },
        {
          "internalType": "uint256",
          "name": "amount",
          "type": "uint256"
        },
        {
          "internalType": "address payable",
          "name": "recipient",
          "type": "address"
        }
      ],
      "name": "createProposal",
      "outputs": [],
      "stateMutability": "nonpayable",
      "type": "function"
    },
    {
      "inputs": [
        {
          "internalType": "uint256",
          "name": "proposalId",
          "type": "uint256"
        }
      ],
      "name": "vote",
      "outputs": [],
      "stateMutability": "nonpayable",
      "type": "function"
    },
    {
      "inputs": [
        {
          "internalType": "uint256",
          "name": "proposalId",
          "type": "uint256"
        }
      ],
      "name": "executeProposal",
      "outputs": [],
      "stateMutability": "nonpayable",
      "type": "function"
    },
    {
      "inputs": [
        {
          "internalType": "uint256",
          "name": "amount",
          "type": "uint256"
        },
        {
          "internalType": "address payable",
          "name": "to",
          "type": "address"
        }
      ],
      "name": "withdrawEther",
      "outputs": [],
      "stateMutability": "nonpayable",
      "type": "function"
    }
  ],
  "bytecode": "0x60806040523480156200001157600080fd5b506040516200228c3803806200228c83398181016040528101906200003791906200010d565b600081118015620000485750606481105b6200008a576040517f08c379a0000000000000000000000000000000000000000000000000000000008152600401620000819062000190565b60405180910390fd5b8242620000989190620001c3565b600681905550816008819055508060098190555033600a60006101000a81548173ffffffffffffffffffffffffffffffffffffffff021916908373ffffffffffffffffffffffffffffffffffffffff160217905550505050620002a1565b600081519050620001078162000287565b92915050565b60008060006060848603121562000129576200012862000259565b5b60006200013986828701620000f6565b93505060206200014c86828701620000f6565b92505060406200015f86828701620000f6565b9150509250925092565b600062000178602083620001b2565b915062000185826200025e565b602082019050919050565b60006020820190508181036000830152620001ab8162000169565b9050919050565b600082825260208201905092915050565b6000620001d08262000220565b9150620001dd8362000220565b9250827fffffffffffffffffffffffffffffffffffffffffffffffffffffffffffffffff038211156200021557620002146200022a565b5b828201905092915050565b6000819050919050565b7f4e487b7100000000000000000000000000000000000000000000000000000000600052601160045260246000fd5b600080fd5b7f71756f72756d206d757374206265206265747765656e203020616e6420313030600082015250565b620002928162000220565b81146200029e57600080fd5b50565b611fdb80620002b16000396000f3fe60806040526004361061010d5760003560e01c80636f7bc9be11610095578063ce56c45411610064578063ce56c45414610393578063ce7c2ac2146103bc578063d151b516146103f9578063d7bb99ba14610424578063f851a4401461042e5761012d565b80636f7bc9be146102c5578063868643df146103025780639f2524ee1461032b578063bcf93dd6146103685761012d565b80631703a018116100dc5780631703a018146101f05780632ab09d141461021b5780633a98ef391461024657806346fcff4c146102715780636ac1e01f1461029c5761012d565b80630121b93f14610132578063013cf08b1461015b578063039383e61461019e5780630d61b519146101c75761012d565b3661012d573460056000828254610124919061197b565b92505081905550005b600080fd5b34801561013e57600080fd5b506101596004803603810190610154919061143f565b610459565b005b34801561016757600080fd5b50610182600480360381019061017d919061143f565b6106b3565b6040516101959796959493929190611893565b60405180910390f35b3480156101aa57600080fd5b506101c560048036038101906101c0919061146c565b6107aa565b005b3480156101d357600080fd5b506101ee60048036038101906101e9919061143f565b610933565b005b3480156101fc57600080fd5b50610205610b2e565b6040516102129190611878565b60405180910390f35b34801561022757600080fd5b50610230610b34565b60405161023d9190611878565b60405180910390f35b34801561025257600080fd5b5061025b610b3a565b6040516102689190611878565b60405180910390f35b34801561027d57600080fd5b50610286610b40565b6040516102939190611878565b60405180910390f35b3480156102a857600080fd5b506102c360048036038101906102be91906113d0565b610b46565b005b3480156102d157600080fd5b506102ec60048036038101906102e79190611363565b610d73565b6040516102f991906116fd565b60405180910390f35b34801561030e57600080fd5b506103296004803603810190610324919061143f565b610d93565b005b34801561033757600080fd5b50610352600480360381019061034d9190611390565b610f2c565b60405161035f91906116fd565b60405180910390f35b34801561037457600080fd5b5061037d610f5b565b60405161038a9190611878565b60405180910390f35b34801561039f57600080fd5b506103ba60048036038101906103b591906114ac565b610f61565b005b3480156103c857600080fd5b506103e360048036038101906103de9190611363565b610fff565b6040516103f09190611878565b60405180910390f35b34801561040557600080fd5b5061040e611017565b60405161041b9190611878565b60405180910390f35b61042c61101d565b005b34801561043a57600080fd5b50610443611142565b60405161045091906116e2565b60405180910390f35b600115156000803373ffffffffffffffffffffffffffffffffffffffff1673ffffffffffffffffffffffffffffffffffffffff16815260200190815260200160002060009054906101000a900460ff161515146104eb576040517f08c379a00000000000000000000000000000000000000000000000000000000081526004016104e2906117b8565b60405180910390fd5b600060036000838152602001908152602001600020905060001515600260003373ffffffffffffffffffffffffffffffffffffffff1673ffffffffffffffffffffffffffffffffffffffff168152602001908152602001600020600084815260200190815260200160002060009054906101000a900460ff161515146105a6576040517f08c379a000000000000000000000000000000000000000000000000000000000815260040161059d90611738565b60405180910390fd5b806005015442106105ec576040517f08c379a00000000000000000000000000000000000000000000000000000000081526004016105e390611798565b60405180910390fd5b6001600260003373ffffffffffffffffffffffffffffffffffffffff1673ffffffffffffffffffffffffffffffffffffffff168152602001908152602001600020600084815260200190815260200160002060006101000a81548160ff021916908315150217905550600160003373ffffffffffffffffffffffffffffffffffffffff1673ffffffffffffffffffffffffffffffffffffffff168152602001908152602001600020548160040160008282546106a8919061197b565b925050819055505050565b60036020528060005260406000206000915090508060000154908060010180546106dc90611b2c565b80601f016020809104026020016040519081016040528092919081815260200182805461070890611b2c565b80156107555780601f1061072a57610100808354040283529160200191610755565b820191906000526020600020905b81548152906001019060200180831161073857829003601f168201915b5050505050908060020154908060030160009054906101000a900473ffffffffffffffffffffffffffffffffffffffff16908060040154908060050154908060060160009054906101000a900460ff16905087565b81600160003373ffffffffffffffffffffffffffffffffffffffff1673ffffffffffffffffffffffffffffffffffffffff16815260200190815260200160002054101561082c576040517f08c379a000000000000000000000000000000000000000000000000000000000815260040161082390611718565b60405180910390fd5b81600160003373ffffffffffffffffffffffffffffffffffffffff1673ffffffffffffffffffffffffffffffffffffffff168152602001908152602001600020600082825461087b9190611a5c565b9250508190555081600160008373ffffffffffffffffffffffffffffffffffffffff1673ffffffffffffffffffffffffffffffffffffffff16815260200190815260200160002060008282546108d1919061197b565b9250508190555060016000808373ffffffffffffffffffffffffffffffffffffffff1673ffffffffffffffffffffffffffffffffffffffff16815260200190815260200160002060006101000a81548160ff0219169083151502179055505050565b600a60009054906101000a900473ffffffffffffffffffffffffffffffffffffffff1673ffffffffffffffffffffffffffffffffffffffff163373ffffffffffffffffffffffffffffffffffffffff16146109c3576040517f08c379a00000000000000000000000000000000000000000000000000000000081526004016109ba90611778565b60405180910390fd5b60006003600083815260200190815260200160002090508060050154421015610a21576040517f08c379a0000000000000000000000000000000000000000000000000000000008152600401610a1890611758565b60405180910390fd5b600015158160060160009054906101000a900460ff16151514610a79576040517f08c379a0000000000000000000000000000000000000000000000000000000008152600401610a70906117f8565b60405180910390fd5b60095460045460648360040154610a909190611a02565b610a9a91906119d1565b1015610adb576040517f08c379a0000000000000000000000000000000000000000000000000000000008152600401610ad2906117d8565b60405180910390fd5b610b0d81600201548260030160009054906101000a900473ffffffffffffffffffffffffffffffffffffffff16611168565b60018160060160006101000a81548160ff0219169083151502179055505050565b60095481565b60075481565b60045481565b60055481565b600115156000803373ffffffffffffffffffffffffffffffffffffffff1673ffffffffffffffffffffffffffffffffffffffff16815260200190815260200160002060009054906101000a900460ff16151514610bd8576040517f08c379a0000000000000000000000000000000000000000000000000000000008152600401610bcf906117b8565b60405180910390fd5b816005541015610c1d576040517f08c379a0000000000000000000000000000000000000000000000000000000008152600401610c1490611858565b60405180910390fd5b6040518060e0016040528060075481526020018481526020018381526020018273ffffffffffffffffffffffffffffffffffffffff1681526020016000815260200160085442610c6d919061197b565b815260200160001515815250600360006007548152602001908152602001600020600082015181600001556020820151816001019080519060200190610cb4929190611211565b506040820151816002015560608201518160030160006101000a81548173ffffffffffffffffffffffffffffffffffffffff021916908373ffffffffffffffffffffffffffffffffffffffff1602179055506080820151816004015560a0820151816005015560c08201518160060160006101000a81548160ff02191690831515021790555090505060076000815480929190610d5090611b8f565b91905055508160056000828254610d679190611a5c565b92505081905550505050565b60006020528060005260406000206000915054906101000a900460ff1681565b80600160003373ffffffffffffffffffffffffffffffffffffffff1673ffffffffffffffffffffffffffffffffffffffff168152602001908152602001600020541015610e15576040517f08c379a0000000000000000000000000000000000000000000000000000000008152600401610e0c90611718565b60405180910390fd5b806005541015610e5a576040517f08c379a0000000000000000000000000000000000000000000000000000000008152600401610e5190611858565b60405180910390fd5b80600160003373ffffffffffffffffffffffffffffffffffffffff1673ffffffffffffffffffffffffffffffffffffffff1681526020019081526020016000206000828254610ea99190611a5c565b925050819055508060046000828254610ec29190611a5c565b925050819055508060056000828254610edb9190611a5c565b925050819055503373ffffffffffffffffffffffffffffffffffffffff166108fc829081150290604051600060405180830381858888f19350505050158015610f28573d6000803e3d6000fd5b5050565b60026020528160005260406000206020528060005260406000206000915091509054906101000a900460ff1681565b60085481565b600a60009054906101000a900473ffffffffffffffffffffffffffffffffffffffff1673ffffffffffffffffffffffffffffffffffffffff163373ffffffffffffffffffffffffffffffffffffffff1614610ff1576040517f08c379a0000000000000000000000000000000000000000000000000000000008152600401610fe890611778565b60405180910390fd5b610ffb8282611168565b5050565b60016020528060005260406000206000915090505481565b60065481565b6006544210611061576040517f08c379a000000000000000000000000000000000000000000000000000000000815260040161105890611818565b60405180910390fd5b60016000803373ffffffffffffffffffffffffffffffffffffffff1673ffffffffffffffffffffffffffffffffffffffff16815260200190815260200160002060006101000a81548160ff02191690831515021790555034600160003373ffffffffffffffffffffffffffffffffffffffff1673ffffffffffffffffffffffffffffffffffffffff1681526020019081526020016000206000828254611107919061197b565b925050819055503460046000828254611120919061197b565b925050819055503460056000828254611139919061197b565b92505081905550565b600a60009054906101000a900473ffffffffffffffffffffffffffffffffffffffff1681565b8160055410156111ad576040517f08c379a00000000000000000000000000000000000000000000000000000000081526004016111a490611838565b60405180910390fd5b81600560008282546111bf9190611a5c565b925050819055508073ffffffffffffffffffffffffffffffffffffffff166108fc839081150290604051600060405180830381858888f1935050505015801561120c573d6000803e3d6000fd5b505050565b82805461121d90611b2c565b90600052602060002090601f01602090048101928261123f5760008555611286565b82601f1061125857805160ff1916838001178555611286565b82800160010185558215611286579182015b8281111561128557825182559160200191906001019061126a565b5b5090506112939190611297565b5090565b5b808211156112b0576000816000905550600101611298565b5090565b60006112c76112c28461192e565b611909565b9050828152602081018484840111156112e3576112e2611c99565b5b6112ee848285611aea565b509392505050565b60008135905061130581611f60565b92915050565b60008135905061131a81611f77565b92915050565b600082601f83011261133557611334611c94565b5b81356113458482602086016112b4565b91505092915050565b60008135905061135d81611f8e565b92915050565b60006020828403121561137957611378611ca3565b5b6000611387848285016112f6565b91505092915050565b600080604083850312156113a7576113a6611ca3565b5b60006113b5858286016112f6565b92505060206113c68582860161134e565b9150509250929050565b6000806000606084860312156113e9576113e8611ca3565b5b600084013567ffffffffffffffff81111561140757611406611c9e565b5b61141386828701611320565b93505060206114248682870161134e565b92505060406114358682870161130b565b9150509250925092565b60006020828403121561145557611454611ca3565b5b60006114638482850161134e565b91505092915050565b6000806040838503121561148357611482611ca3565b5b60006114918582860161134e565b92505060206114a2858286016112f6565b9150509250929050565b600080604083850312156114c3576114c2611ca3565b5b60006114d18582860161134e565b92505060206114e28582860161130b565b9150509250929050565b6114f581611aa2565b82525050565b61150481611a90565b82525050565b61151381611ab4565b82525050565b60006115248261195f565b61152e818561196a565b935061153e818560208601611af9565b61154781611ca8565b840191505092915050565b600061155f60118361196a565b915061156a82611cb9565b602082019050919050565b600061158260288361196a565b915061158d82611ce2565b604082019050919050565b60006115a560238361196a565b91506115b082611d31565b604082019050919050565b60006115c8600a8361196a565b91506115d382611d80565b602082019050919050565b60006115eb60258361196a565b91506115f682611da9565b604082019050919050565b600061160e600e8361196a565b915061161982611df8565b602082019050919050565b600061163160318361196a565b915061163c82611e21565b604082019050919050565b600061165460288361196a565b915061165f82611e70565b604082019050919050565b600061167760278361196a565b915061168282611ebf565b604082019050919050565b600061169a60198361196a565b91506116a582611f0e565b602082019050919050565b60006116bd601a8361196a565b91506116c882611f37565b602082019050919050565b6116dc81611ae0565b82525050565b60006020820190506116f760008301846114fb565b92915050565b6000602082019050611712600083018461150a565b92915050565b6000602082019050818103600083015261173181611552565b9050919050565b6000602082019050818103600083015261175181611575565b9050919050565b6000602082019050818103600083015261177181611598565b9050919050565b60006020820190508181036000830152611791816115bb565b9050919050565b600060208201905081810360008301526117b1816115de565b9050919050565b600060208201905081810360008301526117d181611601565b9050919050565b600060208201905081810360008301526117f181611624565b9050919050565b6000602082019050818103600083015261181181611647565b9050919050565b600060208201905081810360008301526118318161166a565b9050919050565b600060208201905081810360008301526118518161168d565b9050919050565b60006020820190508181036000830152611871816116b0565b9050919050565b600060208201905061188d60008301846116d3565b92915050565b600060e0820190506118a8600083018a6116d3565b81810360208301526118ba8189611519565b90506118c960408301886116d3565b6118d660608301876114ec565b6118e360808301866116d3565b6118f060a08301856116d3565b6118fd60c083018461150a565b98975050505050505050565b6000611913611924565b905061191f8282611b5e565b919050565b6000604051905090565b600067ffffffffffffffff82111561194957611948611c65565b5b61195282611ca8565b9050602081019050919050565b600081519050919050565b600082825260208201905092915050565b600061198682611ae0565b915061199183611ae0565b9250827fffffffffffffffffffffffffffffffffffffffffffffffffffffffffffffffff038211156119c6576119c5611bd8565b5b828201905092915050565b60006119dc82611ae0565b91506119e783611ae0565b9250826119f7576119f6611c07565b5b828204905092915050565b6000611a0d82611ae0565b9150611a1883611ae0565b9250817fffffffffffffffffffffffffffffffffffffffffffffffffffffffffffffffff0483118215151615611a5157611a50611bd8565b5b828202905092915050565b6000611a6782611ae0565b9150611a7283611ae0565b925082821015611a8557611a84611bd8565b5b828203905092915050565b6000611a9b82611ac0565b9050919050565b6000611aad82611ac0565b9050919050565b60008115159050919050565b600073ffffffffffffffffffffffffffffffffffffffff82169050919050565b6000819050919050565b82818337600083830152505050565b60005b83811015611b17578082015181840152602081019050611afc565b83811115611b26576000848401525b50505050565b60006002820490506001821680611b4457607f821691505b60208210811415611b5857611b57611c36565b5b50919050565b611b6782611ca8565b810181811067ffffffffffffffff82111715611b8657611b85611c65565b5b80604052505050565b6000611b9a82611ae0565b91507fffffffffffffffffffffffffffffffffffffffffffffffffffffffffffffffff821415611bcd57611bcc611bd8565b5b600182019050919050565b7f4e487b7100000000000000000000000000000000000000000000000000000000600052601160045260246000fd5b7f4e487b7100000000000000000000000000000000000000000000000000000000600052601260045260246000fd5b7f4e487b7100000000000000000000000000000000000000000000000000000000600052602260045260246000fd5b7f4e487b7100000000000000000000000000000000000000000000000000000000600052604160045260246000fd5b600080fd5b600080fd5b600080fd5b600080fd5b6000601f19601f8301169050919050565b7f6e6f7420656e6f75676820736861726573000000000000000000000000000000600082015250565b7f696e766573746f722063616e206f6e6c7920766f7465206f6e6365207065722060008201527f70726f706f73616c000000000000000000000000000000000000000000000000602082015250565b7f74686520766f74696e6720706572696f64206973207374696c6c206e6f74206f60008201527f7665720000000000000000000000000000000000000000000000000000000000602082015250565b7f6f6e6c792061646d696e00000000000000000000000000000000000000000000600082015250565b7f63616e206f6e6c7920766f746520756e74696c2070726f706f73616c20656e6460008201527f2064617465000000000000000000000000000000000000000000000000000000602082015250565b7f6f6e6c7920696e766573746f7273000000000000000000000000000000000000600082015250565b7f63616e6e6f7420657865637574652070726f706f73616c207769746820766f7460008201527f657320232062656c6f772071756f72756d000000000000000000000000000000602082015250565b7f63616e6e6f7420657865637574652070726f706f73616c20616c72656164792060008201527f6578656375746564000000000000000000000000000000000000000000000000602082015250565b7f63616e6e6f7420636f6e7472696275746520616674657220636f6e747269627560008201527f74696f6e456e6400000000000000000000000000000000000000000000000000602082015250565b7f6e6f7420656e6f75676820617661696c61626c6546756e647300000000000000600082015250565b7f6e6f7420656e6f75676820617661696c61626c652066756e6473000000000000600082015250565b611f6981611a90565b8114611f7457600080fd5b50565b611f8081611aa2565b8114611f8b57600080fd5b50565b611f9781611ae0565b8114611fa257600080fd5b5056fea264697066735822122026cb35cdfc7b237d84f4be798de947f2dff80be7298a556091d0dc6206cf4aef64736f6c63430008060033",
  "immutableReferences": {},
  "source": "// SPDX-License-Identifier: MIT\r\npragma solidity ^0.8.0;\r\n\r\n/**\r\n * DAO contract:\r\n * 1. Collects investors money (ether) & allocate shares\r\n * 2. Keep track of investor contributions with shares\r\n * 3. Allow investors to transfer shares\r\n * 4. allow investment proposals to be created and voted\r\n * 5. execute successful investment proposals (i.e send money)\r\n */\r\n\r\ncontract DAO {  \r\n  struct Proposal {\r\n    uint id;\r\n    string name;\r\n    uint amount;\r\n    address payable recipient;\r\n    uint votes;\r\n    uint end;\r\n    bool executed;\r\n  }\r\n\r\n  mapping(address => bool) public investors;\r\n  mapping(address => uint) public shares;\r\n  mapping(address => mapping(uint => bool)) public votes;\r\n  mapping(uint => Proposal) public proposals;\r\n  uint public totalShares;\r\n  uint public availableFunds;\r\n  uint public contributionEnd;\r\n  uint public nextProposalId;\r\n  uint public voteTime;\r\n  uint public quorum;\r\n  address public admin;\r\n\r\n  constructor(uint contributionTime, uint _voteTime, uint _quorum) {\r\n    require(_quorum > 0 && _quorum < 100, 'quorum must be between 0 and 100');\r\n    contributionEnd = block.timestamp + contributionTime;\r\n    voteTime = _voteTime;\r\n    quorum = _quorum;\r\n    admin = msg.sender;\r\n  }\r\n\r\n  function contribute() payable external {\r\n    require(block.timestamp < contributionEnd, 'cannot contribute after contributionEnd');\r\n    investors[msg.sender] = true;\r\n    shares[msg.sender] += msg.value;\r\n    totalShares += msg.value;\r\n    availableFunds += msg.value;\r\n  }\r\n\r\n  function redeemShare(uint amount) external {\r\n    require(shares[msg.sender] >= amount, 'not enough shares');\r\n    require(availableFunds >= amount, 'not enough available funds');\r\n    shares[msg.sender] -= amount;\r\n    totalShares -= amount;\r\n    availableFunds -= amount;\r\n    payable(msg.sender).transfer(amount);\r\n  }\r\n\r\n  function transferShare(uint amount, address to) external {\r\n    require(shares[msg.sender] >= amount, 'not enough shares');\r\n    shares[msg.sender] -= amount;\r\n    shares[to] += amount;\r\n    investors[to] = true;\r\n  }\r\n\r\n  function createProposal(string memory name, uint amount, address payable recipient) public onlyInvestors() {\r\n    require(availableFunds >= amount, 'not enough available funds');\r\n    proposals[nextProposalId] = Proposal(\r\n      nextProposalId,\r\n      name,\r\n      amount,\r\n      recipient,\r\n      0,\r\n      block.timestamp + voteTime,\r\n      false\r\n    );\r\n    nextProposalId ++;\r\n    availableFunds -= amount;\r\n  }\r\n\r\n  function vote(uint proposalId) external onlyInvestors() {\r\n    Proposal storage proposal = proposals[proposalId];\r\n    require(votes[msg.sender][proposalId] == false, 'investor can only vote once per proposal');\r\n    require(block.timestamp < proposal.end, 'can only vote until proposal end date');\r\n    votes[msg.sender][proposalId] = true;\r\n    proposal.votes += shares[msg.sender];\r\n  }\r\n\r\n  function executeProposal(uint proposalId) external onlyAdmin {\r\n    Proposal storage proposal = proposals[proposalId];\r\n    require(block.timestamp >= proposal.end, 'the voting period is still not over');\r\n    require(proposal.executed == false, 'cannot execute proposal already executed');\r\n    require((proposal.votes * 100 / totalShares) >= quorum, 'cannot execute proposal with votes # below quorum');\r\n    _transferEther(proposal.amount, proposal.recipient);\r\n    proposal.executed = true;\r\n  }\r\n\r\n  function withdrawEther(uint amount, address payable to) external onlyAdmin {    \r\n    _transferEther(amount, to);\r\n  }\r\n\r\n  function _transferEther(uint amount, address payable to) internal {\r\n    require(availableFunds >= amount, 'not enough availableFunds');\r\n    availableFunds -= amount;\r\n    to.transfer(amount);\r\n  }\r\n\r\n  // For ether returns of proposal investment\r\n  receive() external payable {\r\n    availableFunds += msg.value;\r\n  }\r\n\r\n  modifier onlyInvestors() {\r\n    require(investors[msg.sender] ==true, 'only investors');\r\n    _;\r\n  }\r\n\r\n  modifier onlyAdmin() {\r\n    require(msg.sender == admin, 'only admin');\r\n    _;\r\n  }\r\n}",
  "sourcePath": "/mnt/c/Users/Lenovo/Desktop/Blockchain Developer/DApps/DAO/src/contracts/DAO.sol",
  "compiler": {
    "name": "solc",
    "version": "0.8.6+commit.11564f7e.Emscripten.clang"
  },
  "schemaVersion": "3.4.1",
  "updatedAt": "2021-07-21T09:00:30.914Z",
  "networkType": "ethereum",
  "devdoc": {
    "kind": "dev",
    "methods": {},
    "version": 1
  },
  "userdoc": {
    "kind": "user",
    "methods": {},
    "notice": "DAO contract: 1. Collects investors money (ether) & allocate shares 2. Keep track of investor contributions with shares 3. Allow investors to transfer shares 4. allow investment proposals to be created and voted 5. execute successful investment proposals (i.e send money)",
    "version": 1
  }
}